{
  "_format": "hh-sol-artifact-1",
  "contractName": "MyEpicNFT",
  "sourceName": "contracts/MyEpicNFT.sol",
  "abi": [
    {
      "inputs": [],
      "stateMutability": "nonpayable",
      "type": "constructor"
    },
    {
      "anonymous": false,
      "inputs": [
        {
          "indexed": true,
          "internalType": "address",
          "name": "owner",
          "type": "address"
        },
        {
          "indexed": true,
          "internalType": "address",
          "name": "approved",
          "type": "address"
        },
        {
          "indexed": true,
          "internalType": "uint256",
          "name": "tokenId",
          "type": "uint256"
        }
      ],
      "name": "Approval",
      "type": "event"
    },
    {
      "anonymous": false,
      "inputs": [
        {
          "indexed": true,
          "internalType": "address",
          "name": "owner",
          "type": "address"
        },
        {
          "indexed": true,
          "internalType": "address",
          "name": "operator",
          "type": "address"
        },
        {
          "indexed": false,
          "internalType": "bool",
          "name": "approved",
          "type": "bool"
        }
      ],
      "name": "ApprovalForAll",
      "type": "event"
    },
    {
      "anonymous": false,
      "inputs": [
        {
          "indexed": true,
          "internalType": "address",
          "name": "sender",
          "type": "address"
        },
        {
          "indexed": false,
          "internalType": "uint256",
          "name": "tokenId",
          "type": "uint256"
        }
      ],
      "name": "NewEpicNFTMinted",
      "type": "event"
    },
    {
      "anonymous": false,
      "inputs": [
        {
          "indexed": true,
          "internalType": "address",
          "name": "from",
          "type": "address"
        },
        {
          "indexed": true,
          "internalType": "address",
          "name": "to",
          "type": "address"
        },
        {
          "indexed": true,
          "internalType": "uint256",
          "name": "tokenId",
          "type": "uint256"
        }
      ],
      "name": "Transfer",
      "type": "event"
    },
    {
      "inputs": [
        {
          "internalType": "address",
          "name": "to",
          "type": "address"
        },
        {
          "internalType": "uint256",
          "name": "tokenId",
          "type": "uint256"
        }
      ],
      "name": "approve",
      "outputs": [],
      "stateMutability": "nonpayable",
      "type": "function"
    },
    {
      "inputs": [
        {
          "internalType": "address",
          "name": "owner",
          "type": "address"
        }
      ],
      "name": "balanceOf",
      "outputs": [
        {
          "internalType": "uint256",
          "name": "",
          "type": "uint256"
        }
      ],
      "stateMutability": "view",
      "type": "function"
    },
    {
      "inputs": [
        {
          "internalType": "uint256",
          "name": "tokenId",
          "type": "uint256"
        }
      ],
      "name": "getApproved",
      "outputs": [
        {
          "internalType": "address",
          "name": "",
          "type": "address"
        }
      ],
      "stateMutability": "view",
      "type": "function"
    },
    {
      "inputs": [],
      "name": "getNFTCount",
      "outputs": [
        {
          "internalType": "uint256",
          "name": "",
          "type": "uint256"
        }
      ],
      "stateMutability": "view",
      "type": "function"
    },
    {
      "inputs": [
        {
          "internalType": "address",
          "name": "owner",
          "type": "address"
        },
        {
          "internalType": "address",
          "name": "operator",
          "type": "address"
        }
      ],
      "name": "isApprovedForAll",
      "outputs": [
        {
          "internalType": "bool",
          "name": "",
          "type": "bool"
        }
      ],
      "stateMutability": "view",
      "type": "function"
    },
    {
      "inputs": [],
      "name": "makeAnEpicNFT",
      "outputs": [],
      "stateMutability": "nonpayable",
      "type": "function"
    },
    {
      "inputs": [],
      "name": "name",
      "outputs": [
        {
          "internalType": "string",
          "name": "",
          "type": "string"
        }
      ],
      "stateMutability": "view",
      "type": "function"
    },
    {
      "inputs": [
        {
          "internalType": "uint256",
          "name": "tokenId",
          "type": "uint256"
        }
      ],
      "name": "ownerOf",
      "outputs": [
        {
          "internalType": "address",
          "name": "",
          "type": "address"
        }
      ],
      "stateMutability": "view",
      "type": "function"
    },
    {
      "inputs": [
        {
          "internalType": "address",
          "name": "from",
          "type": "address"
        },
        {
          "internalType": "address",
          "name": "to",
          "type": "address"
        },
        {
          "internalType": "uint256",
          "name": "tokenId",
          "type": "uint256"
        }
      ],
      "name": "safeTransferFrom",
      "outputs": [],
      "stateMutability": "nonpayable",
      "type": "function"
    },
    {
      "inputs": [
        {
          "internalType": "address",
          "name": "from",
          "type": "address"
        },
        {
          "internalType": "address",
          "name": "to",
          "type": "address"
        },
        {
          "internalType": "uint256",
          "name": "tokenId",
          "type": "uint256"
        },
        {
          "internalType": "bytes",
          "name": "_data",
          "type": "bytes"
        }
      ],
      "name": "safeTransferFrom",
      "outputs": [],
      "stateMutability": "nonpayable",
      "type": "function"
    },
    {
      "inputs": [
        {
          "internalType": "address",
          "name": "operator",
          "type": "address"
        },
        {
          "internalType": "bool",
          "name": "approved",
          "type": "bool"
        }
      ],
      "name": "setApprovalForAll",
      "outputs": [],
      "stateMutability": "nonpayable",
      "type": "function"
    },
    {
      "inputs": [
        {
          "internalType": "bytes4",
          "name": "interfaceId",
          "type": "bytes4"
        }
      ],
      "name": "supportsInterface",
      "outputs": [
        {
          "internalType": "bool",
          "name": "",
          "type": "bool"
        }
      ],
      "stateMutability": "view",
      "type": "function"
    },
    {
      "inputs": [],
      "name": "symbol",
      "outputs": [
        {
          "internalType": "string",
          "name": "",
          "type": "string"
        }
      ],
      "stateMutability": "view",
      "type": "function"
    },
    {
      "inputs": [
        {
          "internalType": "uint256",
          "name": "tokenId",
          "type": "uint256"
        }
      ],
      "name": "tokenURI",
      "outputs": [
        {
          "internalType": "string",
          "name": "",
          "type": "string"
        }
      ],
      "stateMutability": "view",
      "type": "function"
    },
    {
      "inputs": [
        {
          "internalType": "address",
          "name": "from",
          "type": "address"
        },
        {
          "internalType": "address",
          "name": "to",
          "type": "address"
        },
        {
          "internalType": "uint256",
          "name": "tokenId",
          "type": "uint256"
        }
      ],
      "name": "transferFrom",
      "outputs": [],
      "stateMutability": "nonpayable",
      "type": "function"
    }
  ],
  "bytecode": "0x60806040526040518060c001604052806040518060400160405280600a81526020017f496e6372656469626c650000000000000000000000000000000000000000000081525081526020016040518060400160405280600481526020017f457069630000000000000000000000000000000000000000000000000000000081525081526020016040518060400160405280600781526020017f4d6173736976650000000000000000000000000000000000000000000000000081525081526020016040518060400160405280600881526020017f486f727269626c6500000000000000000000000000000000000000000000000081525081526020016040518060400160405280600881526020017f5465727269626c6500000000000000000000000000000000000000000000000081525081526020016040518060400160405280600981526020017f457863656c6c656e74000000000000000000000000000000000000000000000081525081525060099060066200018192919062000649565b506040518060c001604052806040518060400160405280600681526020017f4b696c6c6572000000000000000000000000000000000000000000000000000081525081526020016040518060400160405280600681526020017f506972617465000000000000000000000000000000000000000000000000000081525081526020016040518060400160405280600681526020017f526f62626572000000000000000000000000000000000000000000000000000081525081526020016040518060400160405280600581526020017f4372617a7900000000000000000000000000000000000000000000000000000081525081526020016040518060400160405280600781526020017f4d6173736976650000000000000000000000000000000000000000000000000081525081526020016040518060400160405280600781526020017f4d616d6d6f746800000000000000000000000000000000000000000000000000815250815250600a906006620002ff92919062000649565b506040518060c001604052806040518060400160405280600481526020017f4a6565700000000000000000000000000000000000000000000000000000000081525081526020016040518060400160405280600581526020017f437261746500000000000000000000000000000000000000000000000000000081525081526020016040518060400160405280600681526020017f556e64696573000000000000000000000000000000000000000000000000000081525081526020016040518060400160405280600481526020017f4a756e6b0000000000000000000000000000000000000000000000000000000081525081526020016040518060400160405280600581526020017f506965636500000000000000000000000000000000000000000000000000000081525081526020016040518060400160405280600781526020017f4661696c75726500000000000000000000000000000000000000000000000000815250815250600b9060066200047d92919062000649565b503480156200048b57600080fd5b506040518060400160405280600c81526020017f53746161205371756172657300000000000000000000000000000000000000008152506040518060400160405280600381526020017f5353510000000000000000000000000000000000000000000000000000000000815250816000908051906020019062000510929190620006b0565b50806001908051906020019062000529929190620006b0565b505050620005776040518060400160405280601e81526020017f54686973206973206d79204e465420636f6e74726163742e20576f61682100008152506200057d60201b62000eda1760201c565b620008fb565b6200061d816040516024016200059491906200080f565b6040516020818303038152906040527f41304fac000000000000000000000000000000000000000000000000000000007bffffffffffffffffffffffffffffffffffffffffffffffffffffffff19166020820180517bffffffffffffffffffffffffffffffffffffffffffffffffffffffff83818316178352505050506200062060201b60201c565b50565b60008151905060006a636f6e736f6c652e6c6f679050602083016000808483855afa5050505050565b8280548282559060005260206000209081019282156200069d579160200282015b828111156200069c5782518290805190602001906200068b929190620006b0565b50916020019190600101906200066a565b5b509050620006ac919062000741565b5090565b828054620006be9062000885565b90600052602060002090601f016020900481019282620006e257600085556200072e565b82601f10620006fd57805160ff19168380011785556200072e565b828001600101855582156200072e579182015b828111156200072d57825182559160200191906001019062000710565b5b5090506200073d919062000769565b5090565b5b808211156200076557600081816200075b919062000788565b5060010162000742565b5090565b5b80821115620007845760008160009055506001016200076a565b5090565b508054620007969062000885565b6000825580601f10620007aa5750620007cb565b601f016020900490600052602060002090810190620007ca919062000769565b5b50565b6000620007db8262000833565b620007e781856200083e565b9350620007f98185602086016200084f565b6200080481620008ea565b840191505092915050565b600060208201905081810360008301526200082b8184620007ce565b905092915050565b600081519050919050565b600082825260208201905092915050565b60005b838110156200086f57808201518184015260208101905062000852565b838111156200087f576000848401525b50505050565b600060028204905060018216806200089e57607f821691505b60208210811415620008b557620008b4620008bb565b5b50919050565b7f4e487b7100000000000000000000000000000000000000000000000000000000600052602260045260246000fd5b6000601f19601f8301169050919050565b613e70806200090b6000396000f3fe608060405234801561001057600080fd5b50600436106100f55760003560e01c80636352211e11610097578063b88d4fde11610066578063b88d4fde14610284578063c87b56dd146102a0578063de9d132f146102d0578063e985e9c5146102da576100f5565b80636352211e146101ea57806370a082311461021a57806395d89b411461024a578063a22cb46514610268576100f5565b8063095ea7b3116100d3578063095ea7b31461017857806323b872dd1461019457806342842e0e146101b057806354279637146101cc576100f5565b806301ffc9a7146100fa57806306fdde031461012a578063081812fc14610148575b600080fd5b610114600480360381019061010f9190612776565b61030a565b6040516101219190612ebd565b60405180910390f35b6101326103ec565b60405161013f9190612ed8565b60405180910390f35b610162600480360381019061015d91906127c8565b61047e565b60405161016f9190612e56565b60405180910390f35b610192600480360381019061018d919061273a565b610503565b005b6101ae60048036038101906101a99190612634565b61061b565b005b6101ca60048036038101906101c59190612634565b61067b565b005b6101d461069b565b6040516101e19190613158565b60405180910390f35b61020460048036038101906101ff91906127c8565b6106ac565b6040516102119190612e56565b60405180910390f35b610234600480360381019061022f91906125cf565b61075e565b6040516102419190613158565b60405180910390f35b610252610816565b60405161025f9190612ed8565b60405180910390f35b610282600480360381019061027d91906126fe565b6108a8565b005b61029e60048036038101906102999190612683565b6108be565b005b6102ba60048036038101906102b591906127c8565b610920565b6040516102c79190612ed8565b60405180910390f35b6102d8610a72565b005b6102f460048036038101906102ef91906125f8565b610e46565b6040516103019190612ebd565b60405180910390f35b60007f80ac58cd000000000000000000000000000000000000000000000000000000007bffffffffffffffffffffffffffffffffffffffffffffffffffffffff1916827bffffffffffffffffffffffffffffffffffffffffffffffffffffffff191614806103d557507f5b5e139f000000000000000000000000000000000000000000000000000000007bffffffffffffffffffffffffffffffffffffffffffffffffffffffff1916827bffffffffffffffffffffffffffffffffffffffffffffffffffffffff1916145b806103e557506103e482610f73565b5b9050919050565b6060600080546103fb90613418565b80601f016020809104026020016040519081016040528092919081815260200182805461042790613418565b80156104745780601f1061044957610100808354040283529160200191610474565b820191906000526020600020905b81548152906001019060200180831161045757829003601f168201915b5050505050905090565b600061048982610fdd565b6104c8576040517f08c379a00000000000000000000000000000000000000000000000000000000081526004016104bf906130b8565b60405180910390fd5b6004600083815260200190815260200160002060009054906101000a900473ffffffffffffffffffffffffffffffffffffffff169050919050565b600061050e826106ac565b90508073ffffffffffffffffffffffffffffffffffffffff168373ffffffffffffffffffffffffffffffffffffffff16141561057f576040517f08c379a000000000000000000000000000000000000000000000000000000000815260040161057690613118565b60405180910390fd5b8073ffffffffffffffffffffffffffffffffffffffff1661059e611049565b73ffffffffffffffffffffffffffffffffffffffff1614806105cd57506105cc816105c7611049565b610e46565b5b61060c576040517f08c379a000000000000000000000000000000000000000000000000000000000815260040161060390612fd8565b60405180910390fd5b6106168383611051565b505050565b61062c610626611049565b8261110a565b61066b576040517f08c379a000000000000000000000000000000000000000000000000000000000815260040161066290613138565b60405180910390fd5b6106768383836111e8565b505050565b610696838383604051806020016040528060008152506108be565b505050565b60006106a76007611444565b905090565b6000806002600084815260200190815260200160002060009054906101000a900473ffffffffffffffffffffffffffffffffffffffff169050600073ffffffffffffffffffffffffffffffffffffffff168173ffffffffffffffffffffffffffffffffffffffff161415610755576040517f08c379a000000000000000000000000000000000000000000000000000000000815260040161074c90613018565b60405180910390fd5b80915050919050565b60008073ffffffffffffffffffffffffffffffffffffffff168273ffffffffffffffffffffffffffffffffffffffff1614156107cf576040517f08c379a00000000000000000000000000000000000000000000000000000000081526004016107c690612ff8565b60405180910390fd5b600360008373ffffffffffffffffffffffffffffffffffffffff1673ffffffffffffffffffffffffffffffffffffffff168152602001908152602001600020549050919050565b60606001805461082590613418565b80601f016020809104026020016040519081016040528092919081815260200182805461085190613418565b801561089e5780601f106108735761010080835404028352916020019161089e565b820191906000526020600020905b81548152906001019060200180831161088157829003601f168201915b5050505050905090565b6108ba6108b3611049565b8383611452565b5050565b6108cf6108c9611049565b8361110a565b61090e576040517f08c379a000000000000000000000000000000000000000000000000000000000815260040161090590613138565b60405180910390fd5b61091a848484846115bf565b50505050565b606061092b82610fdd565b61096a576040517f08c379a000000000000000000000000000000000000000000000000000000000815260040161096190613098565b60405180910390fd5b600060066000848152602001908152602001600020805461098a90613418565b80601f01602080910402602001604051908101604052809291908181526020018280546109b690613418565b8015610a035780601f106109d857610100808354040283529160200191610a03565b820191906000526020600020905b8154815290600101906020018083116109e657829003601f168201915b505050505090506000610a1461161b565b9050600081511415610a2a578192505050610a6d565b600082511115610a5f578082604051602001610a47929190612c43565b60405160208183030381529060405292505050610a6d565b610a6884611632565b925050505b919050565b6000610a7e6007611444565b9050603260ff168110610ac6576040517f08c379a0000000000000000000000000000000000000000000000000000000008152600401610abd90613078565b60405180910390fd5b600080600080600080610ad8876116d9565b9550955095509550955095506000866040518060400160405280600181526020017f2c00000000000000000000000000000000000000000000000000000000000000815250876040518060400160405280600181526020017f2c0000000000000000000000000000000000000000000000000000000000000081525088604051602001610b69959493929190612c98565b60405160208183030381529060405290506000846040518060400160405280600181526020017f2c00000000000000000000000000000000000000000000000000000000000000815250856040518060400160405280600181526020017f2c0000000000000000000000000000000000000000000000000000000000000081525086604051602001610bff959493929190612c98565b60405160208183030381529060405290506000610c1a61178d565b905060006040518060a00160405280607b8152602001613dc0607b913984604051806060016040528060408152602001613caf60409139856040518060c0016040528060918152602001613cef60919139866040518060400160405280600d81526020017f3c2f746578743e3c2f7376673e00000000000000000000000000000000000000815250604051602001610cb89796959493929190612ce3565b60405160208183030381529060405290506000610cfd83610cd8846117cd565b604051602001610ce9929190612db8565b6040516020818303038152906040526117cd565b9050600081604051602001610d129190612e12565b6040516020818303038152906040529050610d616040518060400160405280601581526020017f0a2d2d2d2d2d2d2d2d2d2d2d2d2d2d2d2d2d2d2d2d0000000000000000000000815250610eda565b610d6a81610eda565b610da86040518060400160405280601581526020017f2d2d2d2d2d2d2d2d2d2d2d2d2d2d2d2d2d2d2d2d0a0000000000000000000000815250610eda565b610db2338e61198b565b610dbc8d826119a9565b610dc66007611a1d565b610de9604051806060016040528060258152602001613c8a602591398e33611a33565b3373ffffffffffffffffffffffffffffffffffffffff167febb98688741ffa4c7589bf325de30cf7becb63de567842e1ccdb6cb949fdc82c8e604051610e2f9190613158565b60405180910390a250505050505050505050505050565b6000600560008473ffffffffffffffffffffffffffffffffffffffff1673ffffffffffffffffffffffffffffffffffffffff16815260200190815260200160002060008373ffffffffffffffffffffffffffffffffffffffff1673ffffffffffffffffffffffffffffffffffffffff16815260200190815260200160002060009054906101000a900460ff16905092915050565b610f7081604051602401610eee9190612ed8565b6040516020818303038152906040527f41304fac000000000000000000000000000000000000000000000000000000007bffffffffffffffffffffffffffffffffffffffffffffffffffffffff19166020820180517bffffffffffffffffffffffffffffffffffffffffffffffffffffffff8381831617835250505050611ad2565b50565b60007f01ffc9a7000000000000000000000000000000000000000000000000000000007bffffffffffffffffffffffffffffffffffffffffffffffffffffffff1916827bffffffffffffffffffffffffffffffffffffffffffffffffffffffff1916149050919050565b60008073ffffffffffffffffffffffffffffffffffffffff166002600084815260200190815260200160002060009054906101000a900473ffffffffffffffffffffffffffffffffffffffff1673ffffffffffffffffffffffffffffffffffffffff1614159050919050565b600033905090565b816004600083815260200190815260200160002060006101000a81548173ffffffffffffffffffffffffffffffffffffffff021916908373ffffffffffffffffffffffffffffffffffffffff160217905550808273ffffffffffffffffffffffffffffffffffffffff166110c4836106ac565b73ffffffffffffffffffffffffffffffffffffffff167f8c5be1e5ebec7d5bd14f71427d1e84f3dd0314c0f7b2291e5b200ac8c7c3b92560405160405180910390a45050565b600061111582610fdd565b611154576040517f08c379a000000000000000000000000000000000000000000000000000000000815260040161114b90612fb8565b60405180910390fd5b600061115f836106ac565b90508073ffffffffffffffffffffffffffffffffffffffff168473ffffffffffffffffffffffffffffffffffffffff1614806111ce57508373ffffffffffffffffffffffffffffffffffffffff166111b68461047e565b73ffffffffffffffffffffffffffffffffffffffff16145b806111df57506111de8185610e46565b5b91505092915050565b8273ffffffffffffffffffffffffffffffffffffffff16611208826106ac565b73ffffffffffffffffffffffffffffffffffffffff161461125e576040517f08c379a0000000000000000000000000000000000000000000000000000000008152600401611255906130d8565b60405180910390fd5b600073ffffffffffffffffffffffffffffffffffffffff168273ffffffffffffffffffffffffffffffffffffffff1614156112ce576040517f08c379a00000000000000000000000000000000000000000000000000000000081526004016112c590612f78565b60405180910390fd5b6112d9838383611afb565b6112e4600082611051565b6001600360008573ffffffffffffffffffffffffffffffffffffffff1673ffffffffffffffffffffffffffffffffffffffff168152602001908152602001600020600082825461133491906132ed565b925050819055506001600360008473ffffffffffffffffffffffffffffffffffffffff1673ffffffffffffffffffffffffffffffffffffffff168152602001908152602001600020600082825461138b919061320c565b92505081905550816002600083815260200190815260200160002060006101000a81548173ffffffffffffffffffffffffffffffffffffffff021916908373ffffffffffffffffffffffffffffffffffffffff160217905550808273ffffffffffffffffffffffffffffffffffffffff168473ffffffffffffffffffffffffffffffffffffffff167fddf252ad1be2c89b69c2b068fc378daa952ba7f163c4a11628f55a4df523b3ef60405160405180910390a4505050565b600081600001549050919050565b8173ffffffffffffffffffffffffffffffffffffffff168373ffffffffffffffffffffffffffffffffffffffff1614156114c1576040517f08c379a00000000000000000000000000000000000000000000000000000000081526004016114b890612f98565b60405180910390fd5b80600560008573ffffffffffffffffffffffffffffffffffffffff1673ffffffffffffffffffffffffffffffffffffffff16815260200190815260200160002060008473ffffffffffffffffffffffffffffffffffffffff1673ffffffffffffffffffffffffffffffffffffffff16815260200190815260200160002060006101000a81548160ff0219169083151502179055508173ffffffffffffffffffffffffffffffffffffffff168373ffffffffffffffffffffffffffffffffffffffff167f17307eab39ab6107e8899845ad3d59bd9653f200f220920489ca2b5937696c31836040516115b29190612ebd565b60405180910390a3505050565b6115ca8484846111e8565b6115d684848484611b00565b611615576040517f08c379a000000000000000000000000000000000000000000000000000000000815260040161160c90612f38565b60405180910390fd5b50505050565b606060405180602001604052806000815250905090565b606061163d82610fdd565b61167c576040517f08c379a0000000000000000000000000000000000000000000000000000000008152600401611673906130f8565b60405180910390fd5b600061168661161b565b905060008151116116a657604051806020016040528060008152506116d1565b806116b084611c97565b6040516020016116c1929190612c43565b6040516020818303038152906040525b915050919050565b60608060608060608060006116ed88611e44565b905060006116fa89611e44565b905060006117078a611e44565b90506117158360ff16611c97565b98506117238260ff16611c97565b97506117318160ff16611c97565b965061174b8360ff6117439190613321565b60ff16611c97565b95506117658260ff61175d9190613321565b60ff16611c97565b945061177f8160ff6117779190613321565b60ff16611c97565b935050505091939550919395565b6060611797611e8e565b61179f611fa0565b6117a76120b2565b6040516020016117b993929190612c67565b604051602081830303815290604052905090565b606060008251905060008114156117f65760405180602001604052806000815250915050611986565b60006003600283611807919061320c565b6118119190613262565b600461181d9190613293565b9050600060208261182e919061320c565b67ffffffffffffffff81111561186d577f4e487b7100000000000000000000000000000000000000000000000000000000600052604160045260246000fd5b6040519080825280601f01601f19166020018201604052801561189f5781602001600182028036833780820191505090505b5090506000604051806060016040528060408152602001613d80604091399050600181016020830160005b868110156119435760038101905062ffffff818a015116603f8160121c168401518060081b905060ff603f83600c1c1686015116810190508060081b905060ff603f8360061c1686015116810190508060081b905060ff603f831686015116810190508060e01b905080845260048401935050506118ca565b50600386066001811461195d576002811461196d57611978565b613d3d60f01b6002830352611978565b603d60f81b60018303525b508484525050819450505050505b919050565b6119a58282604051806020016040528060008152506121c4565b5050565b6119b282610fdd565b6119f1576040517f08c379a00000000000000000000000000000000000000000000000000000000081526004016119e890613038565b60405180910390fd5b80600660008481526020019081526020016000209080519060200190611a1892919061245b565b505050565b6001816000016000828254019250508190555050565b611acd838383604051602401611a4b93929190612efa565b6040516020818303038152906040527fe3849f79000000000000000000000000000000000000000000000000000000007bffffffffffffffffffffffffffffffffffffffffffffffffffffffff19166020820180517bffffffffffffffffffffffffffffffffffffffffffffffffffffffff8381831617835250505050611ad2565b505050565b60008151905060006a636f6e736f6c652e6c6f679050602083016000808483855afa5050505050565b505050565b6000611b218473ffffffffffffffffffffffffffffffffffffffff1661221f565b15611c8a578373ffffffffffffffffffffffffffffffffffffffff1663150b7a02611b4a611049565b8786866040518563ffffffff1660e01b8152600401611b6c9493929190612e71565b602060405180830381600087803b158015611b8657600080fd5b505af1925050508015611bb757506040513d601f19601f82011682018060405250810190611bb4919061279f565b60015b611c3a573d8060008114611be7576040519150601f19603f3d011682016040523d82523d6000602084013e611bec565b606091505b50600081511415611c32576040517f08c379a0000000000000000000000000000000000000000000000000000000008152600401611c2990612f38565b60405180910390fd5b805181602001fd5b63150b7a0260e01b7bffffffffffffffffffffffffffffffffffffffffffffffffffffffff1916817bffffffffffffffffffffffffffffffffffffffffffffffffffffffff191614915050611c8f565b600190505b949350505050565b60606000821415611cdf576040518060400160405280600181526020017f30000000000000000000000000000000000000000000000000000000000000008152509050611e3f565b600082905060005b60008214611d11578080611cfa9061347b565b915050600a82611d0a9190613262565b9150611ce7565b60008167ffffffffffffffff811115611d53577f4e487b7100000000000000000000000000000000000000000000000000000000600052604160045260246000fd5b6040519080825280601f01601f191660200182016040528015611d855781602001600182028036833780820191505090505b5090505b60008514611e3857600182611d9e91906132ed565b9150600a85611dad91906134ce565b6030611db9919061320c565b60f81b818381518110611df5577f4e487b7100000000000000000000000000000000000000000000000000000000600052603260045260246000fd5b60200101907effffffffffffffffffffffffffffffffffffffffffffffffffffffffffffff1916908160001a905350600a85611e319190613262565b9450611d89565b8093505050505b919050565b600080611e77611e5384611c97565b604051602001611e639190612e34565b604051602081830303815290604052612232565b9050604081611e8691906134ce565b915050919050565b60606000611eb8604051602001611ea490612dfd565b604051602081830303815290604052612232565b905060098054905081611ecb91906134ce565b905060098181548110611f07577f4e487b7100000000000000000000000000000000000000000000000000000000600052603260045260246000fd5b906000526020600020018054611f1c90613418565b80601f0160208091040260200160405190810160405280929190818152602001828054611f4890613418565b8015611f955780601f10611f6a57610100808354040283529160200191611f95565b820191906000526020600020905b815481529060010190602001808311611f7857829003601f168201915b505050505091505090565b60606000611fca604051602001611fb690612da3565b604051602081830303815290604052612232565b9050600a8054905081611fdd91906134ce565b9050600a8181548110612019577f4e487b7100000000000000000000000000000000000000000000000000000000600052603260045260246000fd5b90600052602060002001805461202e90613418565b80601f016020809104026020016040519081016040528092919081815260200182805461205a90613418565b80156120a75780601f1061207c576101008083540402835291602001916120a7565b820191906000526020600020905b81548152906001019060200180831161208a57829003601f168201915b505050505091505090565b606060006120dc6040516020016120c890612d8e565b604051602081830303815290604052612232565b9050600b80549050816120ef91906134ce565b9050600b818154811061212b577f4e487b7100000000000000000000000000000000000000000000000000000000600052603260045260246000fd5b90600052602060002001805461214090613418565b80601f016020809104026020016040519081016040528092919081815260200182805461216c90613418565b80156121b95780601f1061218e576101008083540402835291602001916121b9565b820191906000526020600020905b81548152906001019060200180831161219c57829003601f168201915b505050505091505090565b6121ce838361228d565b6121db6000848484611b00565b61221a576040517f08c379a000000000000000000000000000000000000000000000000000000000815260040161221190612f38565b60405180910390fd5b505050565b600080823b905060008111915050919050565b6000600860008154809291906122479061347b565b919050555081444261225a600854611c97565b60405160200161226d9493929190612d48565b6040516020818303038152906040528051906020012060001c9050919050565b600073ffffffffffffffffffffffffffffffffffffffff168273ffffffffffffffffffffffffffffffffffffffff1614156122fd576040517f08c379a00000000000000000000000000000000000000000000000000000000081526004016122f490613058565b60405180910390fd5b61230681610fdd565b15612346576040517f08c379a000000000000000000000000000000000000000000000000000000000815260040161233d90612f58565b60405180910390fd5b61235260008383611afb565b6001600360008473ffffffffffffffffffffffffffffffffffffffff1673ffffffffffffffffffffffffffffffffffffffff16815260200190815260200160002060008282546123a2919061320c565b92505081905550816002600083815260200190815260200160002060006101000a81548173ffffffffffffffffffffffffffffffffffffffff021916908373ffffffffffffffffffffffffffffffffffffffff160217905550808273ffffffffffffffffffffffffffffffffffffffff16600073ffffffffffffffffffffffffffffffffffffffff167fddf252ad1be2c89b69c2b068fc378daa952ba7f163c4a11628f55a4df523b3ef60405160405180910390a45050565b82805461246790613418565b90600052602060002090601f01602090048101928261248957600085556124d0565b82601f106124a257805160ff19168380011785556124d0565b828001600101855582156124d0579182015b828111156124cf5782518255916020019190600101906124b4565b5b5090506124dd91906124e1565b5090565b5b808211156124fa5760008160009055506001016124e2565b5090565b600061251161250c84613198565b613173565b90508281526020810184848401111561252957600080fd5b6125348482856133d6565b509392505050565b60008135905061254b81613c2d565b92915050565b60008135905061256081613c44565b92915050565b60008135905061257581613c5b565b92915050565b60008151905061258a81613c5b565b92915050565b600082601f8301126125a157600080fd5b81356125b18482602086016124fe565b91505092915050565b6000813590506125c981613c72565b92915050565b6000602082840312156125e157600080fd5b60006125ef8482850161253c565b91505092915050565b6000806040838503121561260b57600080fd5b60006126198582860161253c565b925050602061262a8582860161253c565b9150509250929050565b60008060006060848603121561264957600080fd5b60006126578682870161253c565b93505060206126688682870161253c565b9250506040612679868287016125ba565b9150509250925092565b6000806000806080858703121561269957600080fd5b60006126a78782880161253c565b94505060206126b88782880161253c565b93505060406126c9878288016125ba565b925050606085013567ffffffffffffffff8111156126e657600080fd5b6126f287828801612590565b91505092959194509250565b6000806040838503121561271157600080fd5b600061271f8582860161253c565b925050602061273085828601612551565b9150509250929050565b6000806040838503121561274d57600080fd5b600061275b8582860161253c565b925050602061276c858286016125ba565b9150509250929050565b60006020828403121561278857600080fd5b600061279684828501612566565b91505092915050565b6000602082840312156127b157600080fd5b60006127bf8482850161257b565b91505092915050565b6000602082840312156127da57600080fd5b60006127e8848285016125ba565b91505092915050565b6127fa81613355565b82525050565b61280981613367565b82525050565b600061281a826131c9565b61282481856131df565b93506128348185602086016133e5565b61283d816135bb565b840191505092915050565b6000612853826131d4565b61285d81856131f0565b935061286d8185602086016133e5565b612876816135bb565b840191505092915050565b600061288c826131d4565b6128968185613201565b93506128a68185602086016133e5565b80840191505092915050565b60006128bf6032836131f0565b91506128ca826135cc565b604082019050919050565b60006128e2601c836131f0565b91506128ed8261361b565b602082019050919050565b6000612905600a83613201565b915061291082613644565b600a82019050919050565b60006129286024836131f0565b91506129338261366d565b604082019050919050565b600061294b6019836131f0565b9150612956826136bc565b602082019050919050565b600061296e606383613201565b9150612979826136e5565b606382019050919050565b6000612991600b83613201565b915061299c82613780565b600b82019050919050565b60006129b4602c836131f0565b91506129bf826137a9565b604082019050919050565b60006129d76038836131f0565b91506129e2826137f8565b604082019050919050565b60006129fa602a836131f0565b9150612a0582613847565b604082019050919050565b6000612a1d6029836131f0565b9150612a2882613896565b604082019050919050565b6000612a40602e836131f0565b9150612a4b826138e5565b604082019050919050565b6000612a63600283613201565b9150612a6e82613934565b600282019050919050565b6000612a866020836131f0565b9150612a918261395d565b602082019050919050565b6000612aa96019836131f0565b9150612ab482613986565b602082019050919050565b6000612acc6031836131f0565b9150612ad7826139af565b604082019050919050565b6000612aef602c836131f0565b9150612afa826139fe565b604082019050919050565b6000612b126029836131f0565b9150612b1d82613a4d565b604082019050919050565b6000612b35602f836131f0565b9150612b4082613a9c565b604082019050919050565b6000612b58600a83613201565b9150612b6382613aeb565b600a82019050919050565b6000612b7b6021836131f0565b9150612b8682613b14565b604082019050919050565b6000612b9e600a83613201565b9150612ba982613b63565b600a82019050919050565b6000612bc1601d83613201565b9150612bcc82613b8c565b601d82019050919050565b6000612be46031836131f0565b9150612bef82613bb5565b604082019050919050565b6000612c07600583613201565b9150612c1282613c04565b600582019050919050565b612c26816133bf565b82525050565b612c3d612c38826133bf565b6134c4565b82525050565b6000612c4f8285612881565b9150612c5b8284612881565b91508190509392505050565b6000612c738286612881565b9150612c7f8285612881565b9150612c8b8284612881565b9150819050949350505050565b6000612ca48288612881565b9150612cb08287612881565b9150612cbc8286612881565b9150612cc88285612881565b9150612cd48284612881565b91508190509695505050505050565b6000612cef828a612881565b9150612cfb8289612881565b9150612d078288612881565b9150612d138287612881565b9150612d1f8286612881565b9150612d2b8285612881565b9150612d378284612881565b915081905098975050505050505050565b6000612d548287612881565b9150612d608286612c2c565b602082019150612d708285612c2c565b602082019150612d808284612881565b915081905095945050505050565b6000612d99826128f8565b9150819050919050565b6000612dae82612984565b9150819050919050565b6000612dc382612b4b565b9150612dcf8285612881565b9150612dda82612961565b9150612de68284612881565b9150612df182612a56565b91508190509392505050565b6000612e0882612b91565b9150819050919050565b6000612e1d82612bb4565b9150612e298284612881565b915081905092915050565b6000612e3f82612bfa565b9150612e4b8284612881565b915081905092915050565b6000602082019050612e6b60008301846127f1565b92915050565b6000608082019050612e8660008301876127f1565b612e9360208301866127f1565b612ea06040830185612c1d565b8181036060830152612eb2818461280f565b905095945050505050565b6000602082019050612ed26000830184612800565b92915050565b60006020820190508181036000830152612ef28184612848565b905092915050565b60006060820190508181036000830152612f148186612848565b9050612f236020830185612c1d565b612f3060408301846127f1565b949350505050565b60006020820190508181036000830152612f51816128b2565b9050919050565b60006020820190508181036000830152612f71816128d5565b9050919050565b60006020820190508181036000830152612f918161291b565b9050919050565b60006020820190508181036000830152612fb18161293e565b9050919050565b60006020820190508181036000830152612fd1816129a7565b9050919050565b60006020820190508181036000830152612ff1816129ca565b9050919050565b60006020820190508181036000830152613011816129ed565b9050919050565b6000602082019050818103600083015261303181612a10565b9050919050565b6000602082019050818103600083015261305181612a33565b9050919050565b6000602082019050818103600083015261307181612a79565b9050919050565b6000602082019050818103600083015261309181612a9c565b9050919050565b600060208201905081810360008301526130b181612abf565b9050919050565b600060208201905081810360008301526130d181612ae2565b9050919050565b600060208201905081810360008301526130f181612b05565b9050919050565b6000602082019050818103600083015261311181612b28565b9050919050565b6000602082019050818103600083015261313181612b6e565b9050919050565b6000602082019050818103600083015261315181612bd7565b9050919050565b600060208201905061316d6000830184612c1d565b92915050565b600061317d61318e565b9050613189828261344a565b919050565b6000604051905090565b600067ffffffffffffffff8211156131b3576131b261358c565b5b6131bc826135bb565b9050602081019050919050565b600081519050919050565b600081519050919050565b600082825260208201905092915050565b600082825260208201905092915050565b600081905092915050565b6000613217826133bf565b9150613222836133bf565b9250827fffffffffffffffffffffffffffffffffffffffffffffffffffffffffffffffff03821115613257576132566134ff565b5b828201905092915050565b600061326d826133bf565b9150613278836133bf565b9250826132885761328761352e565b5b828204905092915050565b600061329e826133bf565b91506132a9836133bf565b9250817fffffffffffffffffffffffffffffffffffffffffffffffffffffffffffffffff04831182151516156132e2576132e16134ff565b5b828202905092915050565b60006132f8826133bf565b9150613303836133bf565b925082821015613316576133156134ff565b5b828203905092915050565b600061332c826133c9565b9150613337836133c9565b92508282101561334a576133496134ff565b5b828203905092915050565b60006133608261339f565b9050919050565b60008115159050919050565b60007fffffffff0000000000000000000000000000000000000000000000000000000082169050919050565b600073ffffffffffffffffffffffffffffffffffffffff82169050919050565b6000819050919050565b600060ff82169050919050565b82818337600083830152505050565b60005b838110156134035780820151818401526020810190506133e8565b83811115613412576000848401525b50505050565b6000600282049050600182168061343057607f821691505b602082108114156134445761344361355d565b5b50919050565b613453826135bb565b810181811067ffffffffffffffff821117156134725761347161358c565b5b80604052505050565b6000613486826133bf565b91507fffffffffffffffffffffffffffffffffffffffffffffffffffffffffffffffff8214156134b9576134b86134ff565b5b600182019050919050565b6000819050919050565b60006134d9826133bf565b91506134e4836133bf565b9250826134f4576134f361352e565b5b828206905092915050565b7f4e487b7100000000000000000000000000000000000000000000000000000000600052601160045260246000fd5b7f4e487b7100000000000000000000000000000000000000000000000000000000600052601260045260246000fd5b7f4e487b7100000000000000000000000000000000000000000000000000000000600052602260045260246000fd5b7f4e487b7100000000000000000000000000000000000000000000000000000000600052604160045260246000fd5b6000601f19601f8301169050919050565b7f4552433732313a207472616e7366657220746f206e6f6e20455243373231526560008201527f63656976657220696d706c656d656e7465720000000000000000000000000000602082015250565b7f4552433732313a20746f6b656e20616c7265616479206d696e74656400000000600082015250565b7f54484952445f574f524400000000000000000000000000000000000000000000600082015250565b7f4552433732313a207472616e7366657220746f20746865207a65726f2061646460008201527f7265737300000000000000000000000000000000000000000000000000000000602082015250565b7f4552433732313a20617070726f766520746f2063616c6c657200000000000000600082015250565b7f222c20226465736372697074696f6e223a20224120686967686c79206163636c60008201527f61696d656420636f6c6c656374696f6e206f6620737175617265732e222c202260208201527f696d616765223a2022646174613a696d6167652f7376672b786d6c3b6261736560408201527f36342c0000000000000000000000000000000000000000000000000000000000606082015250565b7f5345434f4e445f574f5244000000000000000000000000000000000000000000600082015250565b7f4552433732313a206f70657261746f7220717565727920666f72206e6f6e657860008201527f697374656e7420746f6b656e0000000000000000000000000000000000000000602082015250565b7f4552433732313a20617070726f76652063616c6c6572206973206e6f74206f7760008201527f6e6572206e6f7220617070726f76656420666f7220616c6c0000000000000000602082015250565b7f4552433732313a2062616c616e636520717565727920666f7220746865207a6560008201527f726f206164647265737300000000000000000000000000000000000000000000602082015250565b7f4552433732313a206f776e657220717565727920666f72206e6f6e657869737460008201527f656e7420746f6b656e0000000000000000000000000000000000000000000000602082015250565b7f45524337323155524953746f726167653a2055524920736574206f66206e6f6e60008201527f6578697374656e7420746f6b656e000000000000000000000000000000000000602082015250565b7f227d000000000000000000000000000000000000000000000000000000000000600082015250565b7f4552433732313a206d696e7420746f20746865207a65726f2061646472657373600082015250565b7f416c6c204e4654732068617665206265656e206d696e74656400000000000000600082015250565b7f45524337323155524953746f726167653a2055524920717565727920666f722060008201527f6e6f6e6578697374656e7420746f6b656e000000000000000000000000000000602082015250565b7f4552433732313a20617070726f76656420717565727920666f72206e6f6e657860008201527f697374656e7420746f6b656e0000000000000000000000000000000000000000602082015250565b7f4552433732313a207472616e73666572206f6620746f6b656e2074686174206960008201527f73206e6f74206f776e0000000000000000000000000000000000000000000000602082015250565b7f4552433732314d657461646174613a2055524920717565727920666f72206e6f60008201527f6e6578697374656e7420746f6b656e0000000000000000000000000000000000602082015250565b7f7b226e616d65223a202200000000000000000000000000000000000000000000600082015250565b7f4552433732313a20617070726f76616c20746f2063757272656e74206f776e6560008201527f7200000000000000000000000000000000000000000000000000000000000000602082015250565b7f46495253545f574f524400000000000000000000000000000000000000000000600082015250565b7f646174613a6170706c69636174696f6e2f6a736f6e3b6261736536342c000000600082015250565b7f4552433732313a207472616e736665722063616c6c6572206973206e6f74206f60008201527f776e6572206e6f7220617070726f766564000000000000000000000000000000602082015250565b7f434f4c4f52000000000000000000000000000000000000000000000000000000600082015250565b613c3681613355565b8114613c4157600080fd5b50565b613c4d81613367565b8114613c5857600080fd5b50565b613c6481613373565b8114613c6f57600080fd5b50565b613c7b816133bf565b8114613c8657600080fd5b5056fe416e204e465420772f20494420257320686173206265656e206d696e74656420746f202573293b20666f6e742d66616d696c793a206d6f6e6f73706163653b20666f6e742d73697a653a20313470783b207d202e72656374207b2066696c6c3a2072676228293b207d3c2f7374796c653e203c726563742077696474683d223130302522206865696768743d22313030252220636c6173733d227265637422202f3e203c7465787420783d223530252220793d223530252220636c6173733d22626173652220646f6d696e616e742d626173656c696e653d226d6964646c652220746578742d616e63686f723d226d6964646c65223e4142434445464748494a4b4c4d4e4f505152535455565758595a6162636465666768696a6b6c6d6e6f707172737475767778797a303132333435363738392b2f3c73766720786d6c6e733d22687474703a2f2f7777772e77332e6f72672f323030302f73766722207072657365727665417370656374526174696f3d22784d696e594d696e206d656574222076696577426f783d223020302033353020333530223e203c7374796c653e2e626173657b2066696c6c3a2072676228a26469706673582212200fda98b32f47a8fbe610bd106ad039ae72df41b6fe8e4b7ea566706031ddc39264736f6c63430008040033",
  "linkReferences": {},
  "deployedLinkReferences": {}
}